:020000040000fa
:080000000001040000000000f3
:020000040000fa
:0400080042020000b0
:020000040000fa
:04000c0042020000ac
:020000040000fa
:0400100042020000a8
:020000040000fa
:0400140042020000a4
:020000040000fa
:0400180042020000a0
:020000040000fa
:04001c00420200009c
:020000040000fa
:040020004202000098
:020000040000fa
:040024004202000094
:020000040000fa
:040028004202000090
:020000040000fa
:04002c00420200008c
:020000040000fa
:040030004202000088
:020000040000fa
:0400340004020000c2
:020000040000fa
:040038004202000080
:020000040000fa
:04003c00420200007c
:020000040000fa
:040040004202000078
:020000040000fa
:040044004202000074
:020000040000fa
:040048004202000070
:020000040000fa
:04004c00420200006c
:020000040000fa
:040050004202000068
:020000040000fa
:040054004202000064
:020000040000fa
:040058004202000060
:020000040000fa
:04005c00240200007a
:020000040000fa
:040060004202000058
:020000040000fa
:040064004202000054
:020000040000fa
:040068004202000050
:020000040000fa
:04006c00420200004c
:020000040000fa
:040070004202000048
:020000040000fa
:040074004202000044
:020000040000fa
:040078004202000040
:020000040000fa
:04007c00420200003c
:020000040000fa
:040080004202000038
:020000040000fa
:040084004202000034
:020000040000fa
:040088004202000030
:020000040000fa
:04008c00420200002c
:020000040000fa
:040090004202000028
:020000040000fa
:040094004202000024
:020000040000fa
:040098004202000020
:020000040000fa
:04009c00420200001c
:020000040000fa
:0400a0004202000018
:020000040000fa
:0400a4004202000014
:020000040000fa
:0400a8004202000010
:020000040000fa
:0400ac00420200000c
:020000040000fa
:0400b0004202000008
:020000040000fa
:0400b4004202000004
:020000040000fa
:0400b8004202000000
:020000040000fa
:0400bc0042020000fc
:020000040000fa
:0400c00042020000f8
:020000040000fa
:0400c40042020000f4
:020000040000fa
:0400c80042020000f0
:020000040000fa
:0400cc0042020000ec
:020000040000fa
:0400d00042020000e8
:020000040000fa
:0400d40042020000e4
:020000040000fa
:0400d80042020000e0
:020000040000fa
:0400dc0042020000dc
:020000040000fa
:0400e00042020000d8
:020000040000fa
:0400e40042020000d4
:020000040000fa
:0400e80042020000d0
:020000040000fa
:0400ec0042020000cc
:020000040000fa
:0400f00042020000c8
:020000040000fa
:0400f40042020000c4
:020000040000fa
:0400f80042020000c0
:020000040000fa
:0400fc0042020000bc
:020000040000fa
:0401000042020000b7
:020000040000fa
:0401040042020000b3
:020000040000fa
:0401080042020000af
:020000040000fa
:04010c0042020000ab
:020000040000fa
:0401100042020000a7
:020000040000fa
:0401140042020000a3
:020000040000fa
:04011800420200009f
:020000040000fa
:04011c00420200009b
:020000040000fa
:040120004202000097
:020000040000fa
:040124004202000093
:020000040000fa
:04012800420200008f
:020000040000fa
:04012c00420200008b
:020000040000fa
:040130004202000087
:020000040000fa
:040134004202000083
:020000040000fa
:04013800420200007f
:020000040000fa
:04013c00420200007b
:020000040000fa
:040140004202000077
:020000040000fa
:040144004202000073
:020000040000fa
:04014800420200006f
:020000040000fa
:04014c00420200006b
:020000040000fa
:040150004202000067
:020000040000fa
:040154004202000063
:020000040000fa
:04015800420200005f
:020000040000fa
:04015c00420200005b
:020000040000fa
:040160004202000057
:020000040000fa
:040164004202000053
:020000040000fa
:04016800420200004f
:020000040000fa
:04016c00420200004b
:020000040000fa
:040170004202000047
:020000040000fa
:040174004202000043
:020000040000fa
:04017800420200003f
:020000040000fa
:04017c00420200003b
:020000040000fa
:040180004202000037
:020000040000fa
:040184004202000033
:020000040000fa
:04018800420200002f
:020000040000fa
:04018c00420200002b
:020000040000fa
:040190004202000027
:020000040000fa
:040194004202000023
:020000040000fa
:04019800420200001f
:020000040000fa
:04019c00420200001b
:020000040000fa
:0401a0004202000017
:020000040000fa
:0401a4004202000013
:020000040000fa
:0401a800420200000f
:020000040000fa
:0401ac00420200000b
:020000040000fa
:0401b0004202000007
:020000040000fa
:0401b4004202000003
:020000040000fa
:0401b80042020000ff
:020000040000fa
:0401bc0042020000fb
:020000040000fa
:0401c00042020000f7
:020000040000fa
:0401c40042020000f3
:020000040000fa
:0401c80042020000ef
:020000040000fa
:0401cc0042020000eb
:020000040000fa
:0401d00042020000e7
:020000040000fa
:0401d40042020000e3
:020000040000fa
:0401d80042020000df
:020000040000fa
:0401dc0042020000db
:020000040000fa
:0401e00042020000d7
:020000040000fa
:0401e40042020000d3
:020000040000fa
:0401e80042020000cf
:020000040000fa
:0401ec0042020000cb
:020000040000fa
:0401f00042020000c7
:020000040000fa
:0401f40042020000c3
:020000040000fa
:0401f80042020000bf
:020000040000fa
:0401fc0042020000bb
:020000040000fa
:10020000af8420000e7f22000e0188000000000055
:10021000000020000000e000020032000001200089
:100220002002880014000700980007000000e0008a
:1002300003003a00c0b9200001002000020037008e
:100240000000200001002000810f7000010032003a
:1002500014000700000020000000e000020032004f
:100260000000020000000000aa08020000000000d8
:100270000040da000000fe004440a90020002000f9
:100280000000e00003003200100020009001880010
:100290004440a800000006008a1f78008b1f7800e9
:1002a00000000600a1028800800478000000eb0036
:1002b0001f003700e284440054a0b4009905ba003e
:1002c000e284440054a0b4009906ba00e2844400d9
:1002d00054a0b4000006eb00476fde00fd07b2003b
:1002e000ae018800636ce10003003a00eaff0700fa
:1002f0000000eb000e003700606ce10008003a00df
:10030000004deb000a05e800020039003420ec0043
:100310000af0a0008b05e900f9ff3e000400370059
:100320006168e100010032000086eb000b0007006d
:1003300019c7ba001905ba000e04e00003003a001c
:100340000a00e000dbff3a0000000600fe07b200f2
:10035000ae0288008a047800f5ff37000cd0a300b5
:10036000e20f4d001c00390089027800354dba00bb
:100370000a05e800020039003420ec000af0a00071
:100380008b05e9000f003200254dba000a05e80090
:10039000020039003420ec000af0a0008b05e900cf
:1003a000080032000c00e0000600320015cdba0053
:1003b0000a05e800020039003420ec000af0a00031
:1003c0008b05e9008984e80054a0b4000b00e0002c
:1003d000e2ff3a00000006009902ba00055d7800cd
:1003e0008b05e900f7ff3200c82ade00055d7800c2
:1003f0008b05e900f3ff32000c00e000f1ff320052
:1004000019ddba00eeff3700809fbe000000fa0041
:1004100040048000680060000000e0000700320037
:100420008860a9003447a8000080200010407800b0
:100430008040e80000802000014878000080fa0039
:100440004f00be0000400600809fbe000000fa0082
:100450004104800000002200008060000000e000f5
:10046000050032003447a90089a0a900808020003f
:1004700011002000310098000080fa004f00be00fb
:10048000004006000040da000000fe000000050009
:10049000839f68000100e00002003d006000100042
:1004a000e08018000300e00002003d006001110040
:1004b000e0811900050007004f00e00002003b004a
:1004c00060001000e0801800000006006022b80004
:1004d000060220000000d0008180d2000482d200f9
:1004e0008582d2000000a0000202520083825a00de
:1004f000030031000202420083824a000000a10092
:0c0500000603e900f3ff3a0000000600cb
:020000040000fa
:10050c000200fa00004f780011479800c1338000b8
:10051c00f0bf230000806000c0338800a03580004d
:10052c00f000b300a0358800e136800000182000f0
:10053c0001007000e0368800c13380000003200009
:10054c0001007000c03388001e4078000004e000f9
:10055c0003003d00e03680000080a100e0368800fa
:10056c001e74a1001e80fb006101b90000fe2f006b
:10057c00f1ff2f000200400083804800020520009c
:10058c0003002000820f5000838f5800bf013e00f3
:10059c0000600100bf013700be013700bd0137000c
:1005ac00bc013700bb013700ba013700b901370075
:1005bc00b8013700b7013700b6013700b501370075
:1005cc00b4013700b3013700a8013700b10137007f
:1005dc00b001370040003700520037005800370098
:1005ec006700370076003700820037009100370033
:1005fc00a3003700ac003700c1003700a50137005d
:10060c00a4013700a3013700a2013700a101370074
:10061c00a00137009f013700cc0037009d01370047
:10062c00e70037009b013700f2003700010137006b
:10063c000d0137001c01370096013700950137007a
:10064c00940137007f013700920137009101370088
:10065c00900137008f0137008e0137008d01370074
:10066c00640037008b0137008a013700890137009d
:10067c0088013700870137008601370030003700ca
:10068c008401370083013700820137008101370074
:10069c007a0137007f0137007e01370022013700d5
:1006ac00bd003700300137007a013700790137007f
:1006bc00780137004c0137007601370057013700bd
:1006cc0074013700730137007201370006013700df
:1006dc007001370034013700a03580000020a100e4
:1006ec00a0358800a03580000030a100a03588001e
:1006fc00e03680000070a100e0368800c033800036
:10070c000040a100c0338800c03380000050a1001d
:10071c00c0338800a03580000010a100a0358800ef
:10072c005d013700a03580000030a100a0358800a5
:10073c00e03680000070a100e036880056013700da
:10074c00a03580000020a100a0358800a0358000d5
:10075c000030a100a0358800a03580000000a10069
:10076c00a0358800c03380000050a100c033880041
:10077c00c03380000040a100c03388004601370020
:10078c00a03580000020a100a0358800a035800095
:10079c000030a100a0358800e03680000070a10078
:1007ac00e0368800c03380000040a100c0338800d0
:1007bc00a03580000000a100a0358800360137006c
:1007cc00a03580000030a100a0358800e036800004
:1007dc000070a100e0368800a03580000010a10058
:1007ec00a0358800a03580000000a100a03588004d
:1007fc0029013700a03580000020a100a035880019
:10080c00e03680000070a100e0368800c033800024
:10081c000040a100c0338800a03580000010a1006a
:10082c00a0358800a03580000000a100a03588000c
:10083c0019013700a03580000020a100a0358800e8
:10084c00e03680000070a100e0368800c0338000e4
:10085c000040a100c0338800a03580000010a1002a
:10086c00a0358800c03380000050a100c033880040
:10087c00a03580000000a100a035880006013700db
:10088c00a03580000020a100a0358800a035800094
:10089c000030a100a0358800e03680000070a10077
:1008ac00e0368800fc003700a03580000020a10055
:1008bc00a0358800a03580000030a100a03588004c
:1008cc00e03680000070a100e0368800c033800064
:1008dc000040a100c0338800a03580000010a100aa
:1008ec00a0358800c03380000050a100c0338800c0
:1008fc00a03580000000a100a0358800e60037007c
:10090c00a03580000020a100a0358800a035800013
:10091c000030a100a0358800e03680000070a100f6
:10092c00e0368800c03380000040a100c03388004e
:10093c00a03580000010a100a0358800a0358000f3
:10094c000000a100a0358800d3003700a03580003e
:10095c000020a100a0358800a03580000030a10047
:10096c00a0358800e03680000070a100e0368800d9
:10097c00a03580000010a100a0358800c033800095
:10098c000050a100c0338800a03580000000a100f9
:10099c00a0358800c0003700c03380000040a100a3
:1009ac00c0338800c03380000050a100c0338800e1
:1009bc00a03580000000a100a0358800b6003700eb
:1009cc00a03580000020a100a0358800c033800035
:1009dc000040a100c0338800a03580000010a100a9
:1009ec00a0358800c03380000050a100c0338800bf
:1009fc00a9003700a03580000020a100a035880098
:100a0c00c03380000040a100c0338800a0358000b6
:100a1c000010a100a0358800c03380000050a10058
:100a2c00c0338800a03580000000a100a0358800ec
:100a3c0099003700a03580000020a100a035880067
:100a4c00a03580000010a100a0358800c0338000c4
:100a5c000050a100c0338800a03580000000a10028
:100a6c00a03588008c003700a03580000020a10044
:100a7c00a0358800e03680000070a100e0368800c8
:100a8c00c03380000040a100c0338800a035800036
:100a9c000010a100a0358800c03380000050a100d8
:100aac00c03388007c003700a03580000030a100e6
:100abc00a0358800e03680000070a100e036880088
:100acc00a03580000010a100a0358800c033800044
:100adc000050a100c0338800a03580000000a100a8
:100aec00a03588006c003700a03580000020a100e4
:100afc00a0358800a03580000030a100a03588000a
:100b0c00e03680000070a100e0368800a03580003f
:100b1c000010a100a0358800c03380000050a10057
:100b2c00c03388005c003700e03680000070a10004
:100b3c00e0368800c03380000040a100c03388003c
:100b4c00a03580000010a100a0358800c0338000c3
:100b5c000050a100c0338800a03580000000a10027
:100b6c00a03588004c003700a03580000030a10073
:100b7c00a0358800e03680000070a100e0368800c7
:100b8c00c03380000040a100c0338800c033800017
:100b9c000050a100c0338800a03580000000a100e7
:100bac00a03588003c003700a03580000020a10053
:100bbc00a0358800a03580000030a100a035880049
:100bcc00a03580000010a100a0358800c033800043
:100bdc000050a100c0338800a03580000000a100a7
:100bec00a03588002c003700e03680000070a10092
:100bfc00e0368800a03580000010a100a0358800e8
:100c0c00c03380000050a100c0338800a0358000a4
:100c1c000000a100a03588001f003700a03580001f
:100c2c000030a100a0358800e03680000070a100e3
:100c3c00e0368800c03380000040a100c03388003b
:100c4c0015003700c03380000040a100c03388007d
:100c5c00a03580000010a100a0358800c0338000b2
:100c6c000050a100c03388000b003700a035800075
:100c7c000000a100a035880007003700c0338000b9
:100c8c000040a100c03388000300370000000000c2
:100c9c0001003700000000001e4090000080fb00a7
:100cac00e10f50000a003200e20f50000e0032003b
:100cbc000000e00012003a00b1338000f0bf2300c6
:100ccc000080600000f0a000c03388000c003700ea
:100cdc00b1338000f0bf23000080600000e0a00072
:100cec00c033880006003700b1338000f0bf23000a
:100cfc000080600000a0a000c0338800000000004d
:100d0c000080fa00000006000000fa00d826ef0070
:100d1c0030002000a0338800b026ef00b826ef008a
:100d2c0030002000e0338800e026ef003000200087
:100d3c00f0398800a1398000f0f02f00808060002d
:100d4c000007200001007000a0398800c139800024
:100d5c00f00f2e008080600000f020000100700079
:100d6c00c0398800b139800030f82f0080806000d5
:100d7c00c003200001007000b03988003747a8007c
:100d8c003547a800a1398000f0cf2f00008060000b
:100d9c00a039880035e7a80000202000a00c8800ae
:100dac0000022000900c880080002200c004880003
:100dbc009421a800a10c8000f0cf2f0000806000cf
:100dcc000090a000a00c880095e1a800000028006d
:100ddc0010048800c1338000f0bf23000080600045
:100dec00c0338800a0358000f000b300a035880027
:100dfc00e13680000018200001007000e036880009
:100e0c00c13380000003200001007000c033880053
:100e1c000080fa00000006000200fa00004f780083
:100e2c001e407800e94f500003003e0001c3b300a0
:100e3c001ec040000c0037001e407800eb4f5000e5
:100e4c0002003a0020c6b300070037001e407800ad
:100e5c00ed4f500002003a0040c6b30002003700cc
:100e6c0071c3b3001ec040000080fa0000000600f1
:100e7c000800fa00881f7800100798004147980076
:100e8c0032079800c0c0b300004f78001200370042
:100e9c009e40780064cf50001e80fb00be00900086
:100eac000008de00004078006f406000104798009a
:100ebc004e4090000080fb009e009000008440009b
:100ecc001e409000d4ff0700004c78004e4090006c
:100edc000040e800404798001e4078000004e00005
:100eec00ebff3a004f0478000080fa000000060087
:100efc001000fa00881f780050079800414f9800a6
:100f0c0072079800a0c0b30040479800ce489000ec
:100f1c00514798007e0090000000e0000c003d005e
:100f2c004e4890000080fb00de00900000804000e6
:100f3c00d1c2b300014878004e4890000040e80050
:100f4c00404f98007e0090000000ea007007980067
:100f5c007e0090004480de00100798007e00900018
:100f6c00004078006f406000604798001800370020
:100f7c004e4890000080fb00de0090000084400092
:100f8c004e4090000080fb009e0090000001780015
:100f9c00110009008280d8008000fd00004078001c
:100fac009dff0700004c78004e4890000040e80080
:100fbc00404f98004e4090000080fb009e00900037
:100fcc0000017800110009008280d80010079800f9
:100fdc001e0090000000e000e5ff3a00ce489000b3
:100fec005e40900000c05000704798000040eb003d
:100ffc00004f7800210037005e4090008080fb009d
:10100c001e80fb0000804000de009000008040004d
:10101c0090407800014f98005e4090008080fb006b
:10102c001e80fb0000804000de009000008040002d
:10103c00ce4890000181fb009e80fb008100510096
:10104c008100e9005e019000810041009140780030
:10105c00014878004e4890000080fb008000e900b9
:10106c001e80fb0000805000de00900000804000dd
:10107c000e499000024878001e4fe8007e40900018
:10108c000080fb000000d100004078009e4f500013
:10109c00d9ff3e004e4890000080fb000000e900a4
:1010ac00de00900000804000ce4890008180fb0064
:1010bc008100e9005e0190008100410091407800c0
:1010cc000174a000014878004e4890000080fb009d
:1010dc00de009000008440006e4090008080fb0099
:1010ec004e4090000080fb000088b90000007800a2
:1010fc000000e00001003d006f0040004480de0075
:10110c000040780044ff0700004c78004e489000e7
:10111c000040e800404f98004e4890000080fb00d3
:10112c00de0090000080400031c6b300014878001a
:10113c004e4890000040e800404f98004f04780063
:10114c000080fa00000006001200fa00889fbe0022
:10115c0010c0b300404798000040eb0010479800c7
:10116c000040eb00204798000040eb00304798000f
:10117c00e5fe0700808020008000eb003100980025
:10118c006301370000802000104078000004e0006c
:10119c0077003200008020008040eb00014878008e
:1011ac0000802000104090008040e800008020006b
:1011bc001140980000802000204090008040e80002
:1011cc0000802000214098000080200030409000da
:1011dc008040e80000802000314098000080200012
:1011ec0010409000e34f500007003a0000802000b0
:1011fc008040eb001140980000802000b00090006f
:10120c000110a000310098000080200020409000c8
:10121c00e74f500007003a00008020008040eb00b0
:10122c002140980000802000b00090000120a00018
:10123c00310098000080200030409000ea4f5000b0
:10124c0047003a00008020008040eb0031409800bd
:10125c0000802000b00090000130a0003100980008
:10126c0000802000404090008040e800008020007a
:10127c004140980000802000404090008080fb009e
:10128c002003200000017800110009008280d800a2
:10129c008000fd00004078000004e00004003a00eb
:1012ac0000802000b00090000160a0003100980088
:1012bc0000802000404090000081fb00d0cc2c002e
:1012cc000010b8004308de006a00b9000000780086
:1012dc0000005100004078000004e00004003a00d7
:1012ec0000802000b00090000150a0003100980058
:1012fc0000802000404090000081fb00d0cc2c00ee
:10130c000010b8004208de006500b900000078004b
:10131c0000005100004078000004e00004003a0096
:10132c0000802000b00090000140a0003100980027
:10133c0000802000c040900040c6b30080cf500019
:10134c0007003a00008020008040eb0041409800ec
:10135c0000802000b00090000170a00031009800c7
:10136c0000802000b00090000100a0003100980027
:10137c0000802000b000900000042000008060007d
:10138c000000e000160032002e4090000004e00047
:10139c000a0032003e4090000040e90030479800bf
:1013ac003e4090000004e0000d003a002e409000fa
:1013bc000080ea0020479800090037003e4090006a
:1013cc000040e800304798003e409000e24f50004b
:1013dc0003003a002e4090000080ea00204798005d
:1013ec000080200030009000680060000000e000e9
:1013fc00140032001e4090008080fb003e409000a4
:10140c000080fb0000804000418420006141780096
:10141c00524798005e4090009e40900038fc0700b8
:10142c001e4090000080fb008000e800300020008f
:10143c0000017800110009008200d8008000fd0036
:10144c001047980080802000300090000000e000e1
:10145c00ac003200808020008000eb00310098004e
:10146c00808020008000eb0011009800808020001c
:10147c008000eb00010878000040eb00004f780082
:10148c001700370080802000900090001e80fb0029
:10149c0000004000000178000070200000004100b6
:1014ac00100078008080400080802000110098009f
:1014bc0080802000900078001e80fb00000040001f
:1014cc00000178002070200000004100100078001e
:1014dc008080400080802000010878001ecfe8004a
:1014ec001e407800ef4f5000e6ff36008080200051
:1014fc0010009000c300de008080200011009800d6
:10150c008080200010007800c300de008080200066
:10151c0001087800808020009000780080802000f6
:10152c001000900000805000800078008080200027
:10153c00210098000040eb00004f78006e0037004f
:10154c0080802000a00090001e80fb000001400065
:10155c00008120000000410010007800808f5000b6
:10156c0064003d001e80fb008000400000812000d4
:10157c0000804000900078001e80fb000000e90015
:10158c0000014000008120000000410010007800a4
:10159c0000805000cf80de00300798004107980093
:1015ac001e80fb006500b900000078007003b100dc
:1015bc00cf80de004a09dd00c601de008301710028
:1015cc004a01dd001e80fb000000e9006500b90047
:1015dc00000078007003b1006102b9004a28dd00f8
:1015ec00c620de00810070004a20dd0000005100a2
:1015fc008180590050079800610798008080200076
:10160c00a00090001e80fb000000e90000014000db
:10161c000081200000004100100078000080500084
:10162c00cf80de005e0190000191b90002017800cc
:10163c00ee019000009ab90084017800030141008a
:10164c00de0190000018b800010141008200780012
:10165c0070079800010f980070079800010f980010
:10166c003e019000ce0190007e0090008e0890000c
:10167c0084fb070070079800010f98001e80fb0088
:10168c000000e9006500b900000078007003b100ab
:10169c006101b9004a18dd00c610de00810070003f
:1016ac004a10dd007e0190008e099000020040007f
:1016bc008380480070079800010f98007e0090000e
:1016cc008e0890004a09dd004604de000804710013
:1016dc00c68cde0078079800090f98007e009000f9
:1016ec00000178008040eb004084200000fe0700e1
:1016fc00040037001e4fe8001e407800f94f5000e0
:10170c008fff3600008020008000eb003100980035
:10171c004e4090000004e0009afe3a000000eb00fe
:0c172c004f04be000080fa000000060020
:020000040000fa
:10173800440800000600000082000000202020006d
:1017480020000000000800001000000080000000d9
:1017580010080000340000008200000030f8430048
:10176800f85df8007ff8ab00f8e4f8002df9880080
:10177800f9f7f9007cfa1900fbcafb008efc61003e
:10178800fd3efe001fff000000d70000a701680013
:1017980002180300b703460004c4040031058f0093
:0817a800050000000000000034
:020000040000fa
:020000040002f8
:04be0000ffff000040
:020000040000fa
:020000040002f8
:04be2000ffffff0021
:020000040000fa
:020000040002f8
:04be3000ffffff0011
:020000040000fa
:020000040002f8
:04be3800bfffff0049
:020000040000fa
:020000040002f8
:04be4000ffffff0001
:020000040000fa
:020000040002f8
:04be4800ffffff00f9
:020000040000fa
:020000040002f8
:04be5000deffff0012
:020000040000fa
:020000040002f8
:04be5800ffffff00e9
:020000040000fa
:020000040002f8
:04be6000ffffff00e1
:020000040000fa
:020000040002f8
:04be6800ffffff00d9
:020000040000fa
:020000040002f8
:04be7000ffffff00d1
:020000040000fa
:020000040002f8
:04be7800ffffff00c9
:020000040000fa
:020000040002f8
:04be8000ffffff00c1
:00000001FF
