:020000040000fa
:080000000001040000000000f3
:020000040000fa
:0400080042020000b0
:020000040000fa
:04000c00520200009c
:020000040000fa
:040010008202000068
:020000040000fa
:040014006202000084
:020000040000fa
:040018007202000070
:020000040000fa
:04001c009e02000040
:020000040000fa
:04002000900200004a
:020000040000fa
:040024009e02000038
:020000040000fa
:040028009e02000034
:020000040000fa
:04002c009e02000030
:020000040000fa
:040030009e0200002c
:020000040000fa
:0400340004020000c2
:020000040000fa
:040038009e02000024
:020000040000fa
:04003c009e02000020
:020000040000fa
:040040009e0200001c
:020000040000fa
:040044009e02000018
:020000040000fa
:040048009e02000014
:020000040000fa
:04004c009e02000010
:020000040000fa
:040050009e0200000c
:020000040000fa
:040054009e02000008
:020000040000fa
:040058009e02000004
:020000040000fa
:04005c00240200007a
:020000040000fa
:040060009e020000fc
:020000040000fa
:040064009e020000f8
:020000040000fa
:040068009e020000f4
:020000040000fa
:04006c009e020000f0
:020000040000fa
:040070009e020000ec
:020000040000fa
:040074009e020000e8
:020000040000fa
:040078009e020000e4
:020000040000fa
:04007c009e020000e0
:020000040000fa
:040080009e020000dc
:020000040000fa
:040084009e020000d8
:020000040000fa
:040088009e020000d4
:020000040000fa
:04008c009e020000d0
:020000040000fa
:040090009e020000cc
:020000040000fa
:040094009e020000c8
:020000040000fa
:040098009e020000c4
:020000040000fa
:04009c009e020000c0
:020000040000fa
:0400a0009e020000bc
:020000040000fa
:0400a4009e020000b8
:020000040000fa
:0400a8009e020000b4
:020000040000fa
:0400ac009e020000b0
:020000040000fa
:0400b0009e020000ac
:020000040000fa
:0400b4009e020000a8
:020000040000fa
:0400b8009e020000a4
:020000040000fa
:0400bc009e020000a0
:020000040000fa
:0400c0009e0200009c
:020000040000fa
:0400c4009e02000098
:020000040000fa
:0400c8009e02000094
:020000040000fa
:0400cc009e02000090
:020000040000fa
:0400d0009e0200008c
:020000040000fa
:0400d4009e02000088
:020000040000fa
:0400d8009e02000084
:020000040000fa
:0400dc009e02000080
:020000040000fa
:0400e0009e0200007c
:020000040000fa
:0400e4009e02000078
:020000040000fa
:0400e8009e02000074
:020000040000fa
:0400ec009e02000070
:020000040000fa
:0400f0009e0200006c
:020000040000fa
:0400f4009e02000068
:020000040000fa
:0400f8009e02000064
:020000040000fa
:0400fc009e02000060
:020000040000fa
:040100009e0200005b
:020000040000fa
:040104009e02000057
:020000040000fa
:040108009e02000053
:020000040000fa
:04010c009e0200004f
:020000040000fa
:040110009e0200004b
:020000040000fa
:040114009e02000047
:020000040000fa
:040118009e02000043
:020000040000fa
:04011c009e0200003f
:020000040000fa
:040120009e0200003b
:020000040000fa
:040124009e02000037
:020000040000fa
:040128009e02000033
:020000040000fa
:04012c009e0200002f
:020000040000fa
:040130009e0200002b
:020000040000fa
:040134009e02000027
:020000040000fa
:040138009e02000023
:020000040000fa
:04013c009e0200001f
:020000040000fa
:040140009e0200001b
:020000040000fa
:040144009e02000017
:020000040000fa
:040148009e02000013
:020000040000fa
:04014c009e0200000f
:020000040000fa
:040150009e0200000b
:020000040000fa
:040154009e02000007
:020000040000fa
:040158009e02000003
:020000040000fa
:04015c009e020000ff
:020000040000fa
:040160009e020000fb
:020000040000fa
:040164009e020000f7
:020000040000fa
:040168009e020000f3
:020000040000fa
:04016c009e020000ef
:020000040000fa
:040170009e020000eb
:020000040000fa
:040174009e020000e7
:020000040000fa
:040178009e020000e3
:020000040000fa
:04017c009e020000df
:020000040000fa
:040180009e020000db
:020000040000fa
:040184009e020000d7
:020000040000fa
:040188009e020000d3
:020000040000fa
:04018c009e020000cf
:020000040000fa
:040190009e020000cb
:020000040000fa
:040194009e020000c7
:020000040000fa
:040198009e020000c3
:020000040000fa
:04019c009e020000bf
:020000040000fa
:0401a0009e020000bb
:020000040000fa
:0401a4009e020000b7
:020000040000fa
:0401a8009e020000b3
:020000040000fa
:0401ac009e020000af
:020000040000fa
:0401b0009e020000ab
:020000040000fa
:0401b4009e020000a7
:020000040000fa
:0401b8009e020000a3
:020000040000fa
:0401bc009e0200009f
:020000040000fa
:0401c0009e0200009b
:020000040000fa
:0401c4009e02000097
:020000040000fa
:0401c8009e02000093
:020000040000fa
:0401cc009e0200008f
:020000040000fa
:0401d0009e0200008b
:020000040000fa
:0401d4009e02000087
:020000040000fa
:0401d8009e02000083
:020000040000fa
:0401dc009e0200007f
:020000040000fa
:0401e0009e0200007b
:020000040000fa
:0401e4009e02000077
:020000040000fa
:0401e8009e02000073
:020000040000fa
:0401ec009e0200006f
:020000040000fa
:0401f0009e0200006b
:020000040000fa
:0401f4009e02000067
:020000040000fa
:0401f8009e02000063
:020000040000fa
:0401fc009e0200005f
:020000040000fa
:10020000ef8120000e7f22000e0188000000000018
:10021000000020000000e000020032000001200089
:100220002002880014000700c60007000000e0005c
:1002300003003a0020d02000010020000200370017
:100240000000200001002000810f7000010032003a
:1002500014000700000020000000e000020032004f
:100260000000020000000000800802000000000002
:100270000040da000000fe004440a90040032000d6
:100280000000e00003003200002020009001880000
:100290004440a800000006008a1f78008b1f7800e9
:1002a00000000600a1028800800478000000eb0036
:1002b0001f003700e284440054a0b4009905ba003e
:1002c000e284440054a0b4009906ba00e2844400d9
:1002d00054a0b4000006eb00476fde00fd07b2003b
:1002e000ae018800636ce10003003a00eaff0700fa
:1002f0000000eb000e003700606ce10008003a00df
:10030000004deb000a05e800020039003420ec0043
:100310000af0a0008b05e900f9ff3e000400370059
:100320006168e100010032000086eb000b0007006d
:1003300019c7ba001905ba000e04e00003003a001c
:100340000a00e000dbff3a0000000600fe07b200f2
:10035000ae0288008a047800f5ff37000cd0a300b5
:10036000e20f4d001c00390089027800354dba00bb
:100370000a05e800020039003420ec000af0a00071
:100380008b05e9000f003200254dba000a05e80090
:10039000020039003420ec000af0a0008b05e900cf
:1003a000080032000c00e0000600320015cdba0053
:1003b0000a05e800020039003420ec000af0a00031
:1003c0008b05e9008984e80054a0b4000b00e0002c
:1003d000e2ff3a00000006009902ba00055d7800cd
:1003e0008b05e900f7ff3200c82ade00055d7800c2
:1003f0008b05e900f3ff32000c00e000f1ff320052
:1004000019ddba00eeff3700809fbe000000fa0041
:1004100040048000680060000000e0000700320037
:100420008860a9003447a8000080200010407800b0
:100430008040e80000802000014878000080fa0039
:100440004f00be0000400600809fbe000000fa0082
:100450004104800000002200008060000000e000f5
:10046000050032003447a90089a0a900808020003f
:1004700011002000310098000080fa004f00be00fb
:1004800000400600801f78000000fa008020a900cc
:1004900010c0b30010e8b7000080fa004f007800e9
:1004a00000400600801f78000000fa008060a9006c
:1004b00020c0b30010e8b7000080fa004f007800b9
:1004c00000400600801f78000000fa008040a9006c
:1004d00030c0b30010e8b7000080fa004f00780089
:1004e00000400600801f78000000fa008080a9000c
:1004f00040c0b30010e8b7000080fa004f00780059
:1005000000400600801f78000000fa0050c0b300d1
:1005100010e8b7000080fa004f00780000400600a5
:10052000801f78000000fa0060c0b30010e8b70038
:100530000080fa004f007800004006000040da001a
:100540000000fe0000000500839f68000100e0003d
:1005500002003d0060001000e08018000300e00091
:1005600002003d0060011100e08119000500070054
:100570004f00e00002003b0060001000e080180027
:10058000000006006022b800060220000000d00033
:100590008180d2000482d2008582d2000000a000b7
:1005a0000202520083825a0003003100020242001c
:1005b00083824a000000a1000603e900f3ff3a002d
:0405c0000000060031
:020000040000fa
:1005c40030f8000043f800005df800007ff80000f8
:1005d400abf80000e4f800002df9000088f90000f1
:1005e400f7f900007cfa000019fb0000cafb0000c8
:1005f4008efc000061fd00003efe00001fff0000b5
:1006040000000000d7000000a701000068020000fd
:1006140018030000b703000046040000c4040000ef
:08062400310500008f05000004
:020000040000fa
:10062c000400fa002047980031479800f5e3a90030
:10063c00a11f8000f03f2f000080600000a0a000f0
:10064c00a01f8800f5e3a8006034800000c0a10062
:10065c0060348800a0c0b3000c0407002e4090004a
:10066c000080fb00c800dd003e4090000080fb00d5
:10067c00010070000020880000000000e11f8000d5
:10068c0000802000008060000000e000fbff3a00ca
:10069c0001208000010f78006034800000c0a000b1
:1006ac00603488001e0078000080fa00000006000c
:1006bc000400fa0020479800f5e3a900a11f800070
:1006cc00f03f2f0000806000a01f8800f5e3a80019
:1006dc006034800000c0a10060348800a0c0b3006a
:1006ec00ea0307002e4090000080fb0000208800e9
:1006fc0000000000e11f80000080200000806000ee
:10070c000000e000fbff3a0001208000010f7800a0
:10071c006034800000c0a000603488001e007800a7
:10072c00004078000080fa00000006000200fa0089
:10073c00004f780011479800c133800000402c0016
:10074c0001007000c0338800a0358000f000b300b9
:10075c00a0358800403680000010a000403688008c
:10076c00e13680000018200001007000e03688009f
:10077c006034800000f0a000603488001e407800d7
:10078c000004e00003003d00a03580000020a10023
:10079c00a03588009e80fb00f007200000806000e0
:1007ac006101b90000fe2f00f1ff2f000200400094
:1007bc00838048000205200003002000820f5000b7
:1007cc00838f5800bf013e0000600100bf0137005d
:1007dc00be013700bd013700bc013700bb0137003b
:1007ec00ba013700b9013700b8013700b70137003b
:1007fc00b6013700b5013700b4013700b30137003b
:10080c00a8013700b1013700b001370040003700b4
:10081c005200370058003700670037007600370069
:10082c008200370091003700a3003700ac0037007e
:10083c00c1003700a5013700a4013700a301370020
:10084c00a2013700a1013700a00137009f0137003a
:10085c00cc0037009d013700e70037009b013700c3
:10086c00f2003700010137000d0137001c01370081
:10087c009601370095013700940137007f0137004e
:10088c009201370091013700900137008f0137003a
:10089c008e0137008d013700640037008b01370063
:1008ac008a0137008901370088013700870137003a
:1008bc008601370030003700840137008301370090
:1008cc0082013700810137007a0137007f01370040
:1008dc007e01370022013700bd00370030013700a0
:1008ec007a01370079013700780137004c01370065
:1008fc007601370057013700740137007301370058
:10090c0072013700060137007001370034013700df
:10091c006034800000f0a100603488004036800014
:10092c000010a10040368800a03580000030a100e6
:10093c00a0358800e03680000070a100e036880009
:10094c00e03680000080a100e0368800a0358000f1
:10095c000010a100a03588005d01370040368000f2
:10096c000010a10040368800a03580000030a100a6
:10097c00a0358800560137006034800000f0a100db
:10098c0060348800403680000010a100403688009a
:10099c00a03580000000a100a0358800e036800062
:1009ac000080a100e0368800e03680000070a100d5
:1009bc00e0368800460137006034800000f0a1006a
:1009cc0060348800403680000010a100403688005a
:1009dc00a03580000030a100a0358800e0368000f2
:1009ec000070a100e0368800a03580000000a10056
:1009fc00a035880036013700403680000010a10079
:100a0c0040368800a03580000030a100a035880059
:100a1c00a03580000010a100a0358800a035800012
:100a2c000000a100a0358800290137006034800047
:100a3c0000f0a10060348800a03580000030a100d7
:100a4c00a0358800e03680000070a100e0368800f8
:100a5c00a03580000010a100a0358800a0358000d2
:100a6c000000a100a0358800190137006034800017
:100a7c0000f0a10060348800a03580000030a10097
:100a8c00a0358800e03680000070a100e0368800b8
:100a9c00a03580000010a100a0358800e036800051
:100aac000080a100e0368800a03580000000a10085
:100abc00a0358800060137006034800000f0a100ea
:100acc0060348800403680000010a1004036880059
:100adc00a03580000030a100a0358800fc00370054
:100aec006034800000f0a100603488004036800043
:100afc000010a10040368800a03580000030a10015
:100b0c00a0358800e03680000070a100e036880037
:100b1c00a03580000010a100a0358800e0368000d0
:100b2c000080a100e0368800a03580000000a10004
:100b3c00a0358800e60037006034800000f0a1008a
:100b4c0060348800403680000010a10040368800d8
:100b5c00a03580000030a100a0358800e036800070
:100b6c000070a100e0368800a03580000010a100c4
:100b7c00a0358800a03580000000a100a0358800b9
:100b8c00d30037006034800000f0a100603488008e
:100b9c00403680000010a10040368800a03580004f
:100bac000030a100a0358800a03580000010a10005
:100bbc00a0358800e03680000080a100e036880077
:100bcc00a03580000000a100a0358800c0003700cf
:100bdc00e03680000070a100e0368800e03680002e
:100bec000080a100e0368800a03580000000a10044
:100bfc00a0358800b60037006034800000f0a100fa
:100c0c0060348800e03680000070a100e036880077
:100c1c00a03580000010a100a0358800e0368000cf
:100c2c000080a100e0368800a90037006034800005
:100c3c0000f0a10060348800e03680000070a10054
:100c4c00e0368800a03580000010a100a035880097
:100c5c00e03680000080a100e0368800a0358000de
:100c6c000000a100a0358800990037006034800096
:100c7c0000f0a10060348800a03580000010a100b5
:100c8c00a0358800e03680000080a100e0368800a6
:100c9c00a03580000000a100a03588008c00370032
:100cac006034800000f0a10060348800a035800022
:100cbc000030a100a0358800e03680000070a10053
:100ccc00e0368800a03580000010a100a035880017
:100cdc00e03680000080a100e03688007c00370000
:100cec00403680000010a10040368800a0358000fe
:100cfc000030a100a0358800a03580000010a100b4
:100d0c00a0358800e03680000080a100e036880025
:100d1c00a03580000000a100a03588006c003700d1
:100d2c006034800000f0a100603488004036800000
:100d3c000010a10040368800a03580000030a100d2
:100d4c00a0358800a03580000010a100a0358800d7
:100d5c00e03680000080a100e03688005c0037009f
:100d6c00a03580000030a100a0358800e03680005e
:100d7c000070a100e0368800a03580000010a100b2
:100d8c00a0358800e03680000080a100e0368800a5
:100d9c00a03580000000a100a03588004c00370071
:100dac00403680000010a10040368800a03580003d
:100dbc000030a100a0358800e03680000070a10052
:100dcc00e0368800e03680000080a100e036880024
:100ddc00a03580000000a100a03588003c00370041
:100dec006034800000f0a100603488004036800040
:100dfc000010a10040368800a03580000010a10032
:100e0c00a0358800e03680000080a100e036880024
:100e1c00a03580000000a100a03588002c00370010
:100e2c00a03580000030a100a0358800a0358000de
:100e3c000010a100a0358800e03680000080a100e1
:100e4c00e0368800a03580000000a100a0358800a5
:100e5c001f003700403680000010a100403688008b
:100e6c00a03580000030a100a0358800e03680005d
:100e7c000070a100e036880015003700e0368000d5
:100e8c000070a100e0368800a03580000010a100a1
:100e9c00a0358800e03680000080a100e036880094
:100eac000b003700a03580000000a100a0358800a1
:100ebc0007003700e03680000070a100e0368800a3
:100ecc0003003700000000000100370000000000a4
:100edc001e4090000004e00004003a00b033800093
:100eec0000f0a100c03388000a0037001e409000bb
:100efc00e14f500004003a00b033800000e0a10044
:100f0c00c033880003003700b033800000a0a1007c
:100f1c00c03388000080fa00000006000000fa00d0
:100f2c00d826ef0030002000a0338800b026ef0058
:100f3c0000002c0040348800c426ef00b826ef00d7
:100f4c0030002000e0338800e026ef00313f8000c5
:100f5c0000f82f00008060007000b300303f880064
:100f6c00813f800000f82f00008060000030a0005e
:100f7c00803f8800c13d800000fc2f008080600015
:100f8c005002200001007000c03d8800c133800079
:100f9c0000402c0001007000c0338800a035800098
:100fac00f000b300a0358800403680000010a0008f
:100fbc0040368800e13680000018200001007000e7
:100fcc00e03688006034800000f0a00060348800b7
:100fdc006034800000c0a000603488001021ef0055
:100fec001068ef00808020008000eb00310098003a
:100ffc00008020008000eb0031009800f5e3a90090
:10100c00f403a900f583a900f483a900f463a900f3
:10101c00f503a800f4c3a900a11f8000f03f2f0026
:10102c000080600000a0a000a01f8800f7e3a900ca
:10103c00fcc3a900a000200020208800f4a3a80075
:10104c00f5e3a80030002000f0398800a1398000b9
:10105c00f0f02f008080600000072000010070007d
:10106c00a0398800c1398000f00f2e00808060000c
:10107c0000f0200001007000c0398800b1398000f8
:10108c0030f82f0080806000c00320000100700049
:10109c00b03988003747a8003547a800a13980002f
:1010ac00f0cf2f0000806000a039880035e7a80041
:1010bc0000202000a00c880000022000900c88006a
:1010cc0080002200c00488009421a800a10c80009c
:1010dc00f0cf2f00008060000090a000a00c8800d2
:1010ec0095e1a80000002800100488000080fa0098
:1010fc00000006001000fa00889fbe000040eb00c4
:10110c00104798000040eb00204798000040eb008f
:10111c003047980081ff07000080200010407800c5
:10112c000004e00077003200008020008040eb00db
:10113c000148780000802000104090008040e800ba
:10114c00008020001140980000802000204090007a
:10115c008040e800008020002140980000802000a2
:10116c00304090008040e800008020003140980022
:10117c000080200010409000e34f500007003a0020
:10118c00008020008040eb0011409800008020007f
:10119c00b00090000110a0003100980000802000e9
:1011ac0020409000e74f500007003a0000802000dc
:1011bc008040eb002140980000802000b00090009f
:1011cc000120a000310098000080200030409000e9
:1011dc00ea4f500047003a00008020008040eb00ae
:1011ec003140980000802000b00090000130a00039
:1011fc003100980000802000404090008040e800c2
:10120c000080200041409800008020004040900069
:10121c008080fb00200320000001780011000900f1
:10122c008280d8008000fd00004078000004e000bf
:10123c0004003a0000802000b00090000160a00083
:10124c003100980000802000404090000081fb009d
:10125c00d0cc2c000010b8004308de006a00b900a6
:10126c000000780000005100004078000004e0000d
:10127c0004003a0000802000b00090000150a00053
:10128c003100980000802000404090000081fb005d
:10129c00d0cc2c000010b8004208de006500b9006c
:1012ac000000780000005100004078000004e000cd
:1012bc0004003a0000802000b00090000140a00023
:1012cc003100980000802000c040900040c6b30060
:1012dc0080cf500007003a00008020008040eb00d7
:1012ec004140980000802000b00090000170a000e8
:1012fc003100980000802000b00090000100a00098
:10130c003100980000802000b00090000004200004
:10131c00008060000000e000160032002e409000bb
:10132c000004e0000a0032003e4090000040e9005a
:10133c00304798003e4090000004e0000d003a0059
:10134c002e4090000080ea002047980009003700ea
:10135c003e4090000040e800304798003e4090002e
:10136c00e74f500003003a002e4090000080ea0046
:10137c002047980000802000b00090000002200060
:10138c00008060000000e0000300320080c0eb0031
:10139c00f0c4b300a2fc07000080200030009000d5
:1013ac00610060000000e000090032001e40900067
:1013bc000080fb008000e800300020000001780075
:1013cc00110009008200d8008000fd001047980031
:1013dc0080802000300090000000e000a700320068
:1013ec00808020008000eb0031009800808020007d
:1013fc008000eb0011009800808020008000eb0042
:10140c00010878000040eb00004f7800170037000f
:10141c0080802000900090001e80fb0000004000a7
:10142c0000017800007020000000410010007800de
:10143c008080400080802000110098008080200077
:10144c00900078001e80fb00000040000001780036
:10145c0020702000000041001000780080804000c7
:10146c0080802000010878001ecfe8001e40780024
:10147c00ef4f5000e6ff36008080200010009000f7
:10148c00c300de00808020001100980080802000c6
:10149c0010007800c300de00808020000108780076
:1014ac008080200090007800808020001000900048
:1014bc00008050008000780080802000210098007f
:1014cc000040eb00004f780069003700808020005e
:1014dc00a00090001e80fb0000014000202e280080
:1014ec000000410010007800808f50005f003d002c
:1014fc001e80fb0080004000202e28000080400051
:10150c00900078001e80fb000000e9000001400004
:10151c00202e2800000041001000780000805000b0
:10152c00cf80de0020079800310798001e80fb005a
:10153c006500b900000078007003b100cf80de00b8
:10154c004a09dd00c601de00830171004a01dd009d
:10155c001e80fb000000e9006500b9000000780067
:10156c007003b1006102b9004a28dd00c620de001c
:10157c00810070004a20dd0000005100818059007c
:10158c00400798005107980080802000a000900030
:10159c001e80fb000000e90000014000202e280006
:1015ac00000041001000780000805000cf80de0069
:1015bc004e0190000191b90002017800de0190000b
:1015cc00009ab9008401780003014100ce0190001b
:1015dc000018b800010141008200780060079800f3
:1015ec007107980060079800710798002e01900011
:1015fc00be0190006e009000fe009000cffb070033
:10160c0060079800710798001e80fb000000e9003d
:10161c006500b900000078007003b1006101b900e9
:10162c004a18dd00c610de00810070004a10dd0093
:10163c006e019000fe019000020040008380480083
:10164c0060079800710798006e009000fe009000f3
:10165c004a09dd004604de0008047100c68cde0079
:10166c006807980079079800040037001e4fe800bf
:10167c001e407800f94f500094ff36000080200087
:10168c008000eb0031009800a3fe37000200fa0046
:10169c00004f78001e4078000004e0000800320083
:1016ac00000000001e80fb000000ea004f00de007e
:1016bc00004078001e4fe9000004e000f9ff3a00fa
:1016cc000080fa00000006000200fa00004f7800cb
:1016dc001e407800e94f500003003e0001c3b300e8
:1016ec001ec040000c0037001e407800eb4f50002d
:1016fc0002003a0020c6b300070037001e407800f5
:10170c00ed4f500002003a0040c6b3000200370013
:10171c0071c3b3001ec040000080fa000000060038
:10172c000800fa00881f78001007980041479800bd
:10173c0032079800c0c0b300004f78001200370089
:10174c009e40780064cf50001e80fb00be009000cd
:10175c000008de00004078006f40600010479800e1
:10176c004e4090000080fb009e00900000844000e2
:10177c001e409000d4ff0700004c78004e409000b3
:10178c000040e800404798001e4078000004e0004c
:10179c00ebff3a004f0478000080fa0000000600ce
:1017ac001000fa00881f780050079800414f9800ed
:1017bc0072079800a0c0b30040479800ce48900034
:1017cc00514798007e0090000000e0000c003d00a6
:1017dc004e4890000080fb00de009000008040002e
:1017ec00d1c2b300014878004e4890000040e80098
:1017fc00404f98007e0090000000ea0070079800af
:10180c007e0090004480de00100798007e0090005f
:10181c00004078006f406000604798001800370067
:10182c004e4890000080fb00de00900000844000d9
:10183c004e4090000080fb009e009000000178005c
:10184c00110009008280d8008000fd000040780063
:10185c009dff0700004c78004e4890000040e800c7
:10186c00404f98004e4090000080fb009e0090007e
:10187c0000017800110009008280d8001007980040
:10188c001e0090000000e000e5ff3a00ce489000fa
:10189c005e40900000c05000704798000040eb0084
:1018ac00004f7800210037005e4090008080fb00e4
:1018bc001e80fb0000804000de0090000080400095
:1018cc0090407800014f98005e4090008080fb00b3
:1018dc001e80fb0000804000de0090000080400075
:1018ec00ce4890000181fb009e80fb0081005100de
:1018fc008100e9005e019000810041009140780078
:10190c00014878004e4890000080fb008000e90000
:10191c001e80fb0000805000de0090000080400024
:10192c000e499000024878001e4fe8007e4090005f
:10193c000080fb000000d100004078009e4f50005a
:10194c00d9ff3e004e4890000080fb000000e900eb
:10195c00de00900000804000ce4890008180fb00ab
:10196c008100e9005e019000810041009140780007
:10197c000174a000014878004e4890000080fb00e4
:10198c00de009000008440006e4090008080fb00e0
:10199c004e4090000080fb000088b90000007800e9
:1019ac000000e00001003d006f0040004480de00bc
:1019bc000040780044ff0700004c78004e4890002f
:1019cc000040e800404f98004e4890000080fb001b
:1019dc00de0090000080400031c6b3000148780062
:1019ec004e4890000040e800404f98004f047800ab
:0819fc000080fa000000060063
:020000040000fa
:101a0400120800000c0000008200000020202000ca
:101a1400383838003820200020000000000800007a
:0c1a240012000000800000000000000024
:020000040000fa
:020000040002f8
:04be0000ffff000040
:020000040000fa
:020000040002f8
:04be2000ffffff0021
:020000040000fa
:020000040002f8
:04be3000ffffff0011
:020000040000fa
:020000040002f8
:04be3800bfffff0049
:020000040000fa
:020000040002f8
:04be40009fffff0061
:020000040000fa
:020000040002f8
:04be4800ffffff00f9
:020000040000fa
:020000040002f8
:04be5000deffff0012
:020000040000fa
:020000040002f8
:04be5800ffffff00e9
:020000040000fa
:020000040002f8
:04be6000ffffff00e1
:020000040000fa
:020000040002f8
:04be6800ffffff00d9
:020000040000fa
:020000040002f8
:04be7000ffffff00d1
:020000040000fa
:020000040002f8
:04be7800ffffff00c9
:020000040000fa
:020000040002f8
:04be8000ffffff00c1
:00000001FF
